:100000000C9498000C945E040C9437040C94C0007B
:100010000C94C0000C94C0000C94C0000C94C00060
:100020000C94C0000C94C0000C94C0000C94C00050
:100030000C94C0000C94C0000C94C0000C94C00040
:100040000C94ED030C94C0000C94F2020C94CC02BE
:100050000C94C0000C94C0000C94C0000C94C00020
:100060000C94C0000C94C000E814ED14F214F714C2
:10007000FC14011506152E110B15101572756E2D39
:100080006272696467650A000A000A00454E4420EE
:1000900041205041434B45542C204D6F64653A003C
:1000A0000000000800020100000304070000000037
:1000B0000000000000000000250028002B000000C8
:1000C0000000240027002A0004040404040404049B
:1000D00002020202020203030303030301020408F3
:1000E00010204080010204081020010204081020A2
:1000F0004E414E494E495459494E46CDCCCC3D0A0D
:10010000D7233C17B7D13877CC2B329595E6241FEF
:10011000B14F0A000020410000C84200401C4620A8
:10012000BCBE4CCA1B0E5AAEC59D7400F916D7163C
:1001300011241FBECFEFD8E0DEBFCDBF12E0A0E09C
:10014000B1E0EAEBF1E402C005900D92A43AB107E8
:10015000D9F725E0A4EAB2E001C01D92A93DB2079B
:10016000E1F710E0C7E9D0E004C02197FE010E944A
:10017000C517C639D107C9F70E94750D0C94D02058
:100180000C940000CF92DF92EF92FF920F931F9397
:10019000CF93DF936C017A018B01C0E0D0E0CE15E4
:1001A000DF0589F0D8016D918D01D601ED91FC91AB
:1001B0000190F081E02DC6010995892B11F47E0193
:1001C00002C02196ECCFC701DF91CF911F910F9113
:1001D000FF90EF90DF90CF900895FC01918D828D7C
:1001E000981761F0828DDF01A80FB11D5D968C918B
:1001F000928D9F5F9F73928F90E008958FEF9FEF96
:100200000895FC01918D828D981731F0828DE80F51
:10021000F11D858D90E008958FEF9FEF0895FC010B
:10022000918D228D892F90E0805C9F4F821B9109D8
:100230008F73992708958AE095E00E940F0121E0CD
:10024000892B09F420E0822F0895FC01848DDF01C1
:10025000A80FB11DA35ABF4F2C91848D90E0019639
:100260008F739927848FA689B7892C93A089B18928
:100270008C9180648C93938D848D981306C0028832
:10028000F389E02D80818F7D80830895EF92FF9226
:100290000F931F93CF93DF93EC0181E0888F9B8DA9
:1002A0008C8D981305C0E889F989808185FD24C06B
:1002B000F62E0B8D10E00F5F1F4F0F731127E02EEE
:1002C0008C8DE8120CC00FB607FCFACFE889F989CB
:1002D000808185FFF5CFCE010E942501F1CF8B8D66
:1002E000FE01E80FF11DE35AFF4FF0820B8FEA8900
:1002F000FB898081806207C0EE89FF896083E8897D
:10030000F98980818064808381E090E0DF91CF91E2
:100310001F910F91FF90EF900895CF93DF93EC0121
:10032000888D8823C9F0EA89FB89808185FD05C015
:10033000A889B9898C9186FD0FC00FB607FCF5CF4F
:10034000808185FFF2CFA889B9898C9185FFEDCF97
:10035000CE010E942501E7CFDF91CF91089580E083
:1003600090E0892B29F00E941B0181110C94000060
:1003700008953FB7F8948091E8049091E904A09122
:10038000EA04B091EB0426B5A89B05C02F3F19F0F5
:100390000196A11DB11D3FBFBA2FA92F982F882705
:1003A000820F911DA11DB11DBC01CD0142E0660F60
:1003B000771F881F991F4A95D1F7089508950895CA
:1003C000CF93DF931F92CDB7DEB76983DC01ED9148
:1003D000FC910280F381E02D41E050E0BE016F5FAF
:1003E0007F4F09950F90DF91CF910895089508955B
:1003F000CF93DF931F92CDB7DEB76983DC01ED9118
:10040000FC910280F381E02D41E050E0BE016F5F7E
:100410007F4F09950F90DF91CF910895FC012381C3
:1004200034812627022E2295207F2025032E322F6D
:1004300022952F700226269532272327220F220F7E
:10044000220F20253483238308950E948E1A0F9350
:100450001F93CF93DF93EC0188819981009729F056
:100460002A813B812617370788F48B016F5F7F4F06
:100470000E94C419009761F0998388831B830A83C3
:100480002C813D81232B11F4FC01108281E001C0FD
:1004900080E0DF91CF911F910F910895EF92FF922D
:1004A0000F931F93CF93DF93EC017B018A01BA0175
:1004B0000E9427022881398181110DC02115310543
:1004C00019F0C9010E942C19198218821D821C8200
:1004D0001B821A8206C01D830C83B701C9010E94CA
:1004E0009C1ACE01DF91CF911F910F91FF90EF9059
:1004F0000895FC01808191810C942C19FC011182DA
:10050000108213821282158214826115710551F0D6
:10051000FB0101900020E9F73197AF01461B570B13
:100520000C944E020895EF92FF920F931F93CF9376
:10053000DF938C017B01C0E0D0E0F701EC0FFD1FE1
:100540006491662361F0D801ED91FC910190F081F6
:10055000E02DC8010995892B11F02196EECFCE012F
:10056000DF91CF911F910F91FF90EF90089561154A
:10057000710579F0FB0101900020E9F73197AF0197
:10058000461B570BDC01ED91FC910280F381E02DBD
:10059000099480E090E008951F920F920FB60F9299
:1005A00011242F933F934F935F936F937F938F9378
:1005B0009F93AF93BF93EF93FF938AE095E00E94E0
:1005C0002501FF91EF91BF91AF919F918F917F9105
:1005D0006F915F914F913F912F910F900FBE0F90B0
:1005E0001F9018951F920F920FB60F9211242F9300
:1005F0008F939F93EF93FF93E0911A05F0911B0562
:100600008081E0912005F091210582FD12C090814A
:10061000809123058F5F8F7320912405821751F0FD
:10062000E0912305F0E0E65FFA4F958F8093230574
:1006300001C08081FF91EF919F918F912F910F9039
:100640000FBE0F901F90189590E0FC01E056FF4FF1
:100650003491FC01E452FF4F2491FC01E853FF4F19
:10066000E491EE2309F43BC0332339F1333091F0A8
:1006700038F43130A9F0323001F584B58F7D12C0E5
:10068000373091F03830A1F03430B9F480918000E7
:100690008F7D03C0809180008F77809380000DC094
:1006A00084B58F7784BD09C08091B0008F7703C077
:1006B0008091B0008F7D8093B000F0E0EE0FFF1FBF
:1006C000EC54FF4FA591B4918FB7F894EC91611160
:1006D00003C020952E2301C02E2B2C938FBF08958D
:1006E0008F929F92AF92BF92CF92DF92EF92FF9242
:1006F0006B017C010E94B9014B015C01C114D10462
:10070000E104F104F1F00E94B901DC01CB01881988
:100710009909AA09BB09883E9340A105B10570F368
:1007200021E0C21AD108E108F10888EE880E83E0C2
:10073000981EA11CB11CC114D104E104F10419F7E5
:10074000DDCFFF90EF90DF90CF90BF90AF909F9064
:100750008F9008952FB7F8946091E4047091E504A8
:100760008091E6049091E7042FBF08958F929F92A5
:10077000AF92BF92CF92DF92EF92FF92CF93DF932F
:10078000EC016B010E94AA034B015C01E12CF12CEE
:100790008D819E81DC01ED91FC910680F781E02D39
:1007A000099597FF0FC00E94AA03DC01CB018819AD
:1007B0009909AA09BB098C159D05AE05BF0540F333
:1007C0008FEF9FEFDF91CF91FF90EF90DF90CF9071
:1007D000BF90AF909F908F9008951F920F920FB689
:1007E0000F9211242F933F938F939F93AF93BF93B7
:1007F0008091E4049091E504A091E604B091E704AF
:100800003091E30423E0230F2D3720F40196A11D3E
:10081000B11D05C026E8230F0296A11DB11D20932E
:10082000E3048093E4049093E504A093E604B0937A
:10083000E7048091E8049091E904A091EA04B09162
:10084000EB040196A11DB11D8093E8049093E90487
:10085000A093EA04B093EB04BF91AF919F918F9165
:100860003F912F910F900FBE0F901F9018951F92E0
:100870000F920FB60F9211242F933F934F935F93D4
:100880006F937F938F939F93AF93BF93EF93FF9358
:10089000E0910201F09103010995FF91EF91BF9161
:1008A000AF919F918F917F916F915F914F913F9108
:1008B0002F910F900FBE0F901F9018951F920F92BF
:1008C0000FB60F9211242F933F934F935F936F9323
:1008D0007F938F939F93AF93BF93EF93FF93E09199
:1008E0000001F09101010995FF91EF91BF91AF9146
:1008F0009F918F917F916F915F914F913F912F9138
:100900000F900FBE0F901F901895EF92FF921F93BC
:10091000CF93DF931F92CDB7DEB77C01162F60E037
:10092000FC01868549830E942403F701948585850F
:100930009CBD8DBD1EBD000049810DB407FEFDCFDD
:100940008EB54EBD00000DB407FEFDCF1EB561E0B3
:10095000F70186850E942403812F0F90DF91CF91AC
:100960001F91FF90EF9008956F7740E00C948504FD
:10097000EF92FF921F93CF93DF931F92CDB7DEB715
:100980007C01DC01ED91FC910480F581E02D09955D
:10099000892B99F06DE0C7010E94B404482F60E0F4
:1009A000C70149830E94B404182F49816DE8C7012B
:1009B0000E948504812F90E002C08FEF9FEF0F907F
:1009C000DF91CF911F91FF90EF900895CF93DF9328
:1009D000EC01E881F9810480F581E02D0995892BEE
:1009E00059F08E899F8901969F8B8E8B60E0CE0196
:1009F0000E94B40490E002C08FEF9FEFDF91CF918F
:100A00000895CF93DF93EC0163E10E94B404282F93
:100A100030E08E899F89A901481B590BCA01DF91DB
:100A2000CF9108958F929F92AF92BF92CF92DF9213
:100A3000FF920F931F93CF93DF931F92CDB7DEB733
:100A40006C01B62E4A0162E279830E94B404F82E4A
:100A500090E09C01280D391D79812F3F310531F03F
:100A600028F02FEF30E04901881A990A0B2D172F33
:100A70005801A80CB91C0A151B0541F0F801419159
:100A80008F0160E8C6010E948504F5CF482D4F0D07
:100A900062EAC6010E948504C4010F90DF91CF91E4
:100AA0001F910F91FF90DF90CF90BF90AF909F90DC
:100AB0008F900895CF92DF92EF92FF920F931F9342
:100AC000CF93DF936C017B01FC01C785D0890C813A
:100AD0001D810F5F1F4FB801CE010E94270288239E
:100AE00061F0288139818C819D8168E872E0820FF4
:100AF000931F0E949C1A1D830C83F601C785D08921
:100B0000F70184819581E080F1800C811D81E114E1
:100B1000F104A9F0009799F0080F191FB801CE0150
:100B20000E942702882359F0288139818C819D8178
:100B3000B701820F931F0E949C1A1D830C83DF91C3
:100B4000CF911F910F91FF90EF90DF90CF9008957C
:100B5000CF93DF93EC018D819E81DC01ED91FC91BF
:100B60000480F581E02D09951816190654F48D813D
:100B70009E81DC01ED91FC910680F781E02D0995C5
:100B8000EACFDF91CF9108952F923F924F925F92DB
:100B90006F927F928F929F92AF92BF92CF92DF928D
:100BA000EF92FF920F931F93CF93DF93CDB7DEB7F2
:100BB0002B970FB6F894DEBF0FBECDBF9B878A87F9
:100BC0005B011901FD82EC823A01600E711E872CD7
:100BD0007B82912C44244A94542C9B01240F351F72
:100BE0003F832E839101200F311F39872887EA85A3
:100BF000FB858085981608F036C1AA85BB851496BA
:100C00005C924E92139715968D919C911697DC01EC
:100C1000ED91FC910190F081E02D6FEF09956FEF60
:100C20008A859B850E940E02EA85FB8585819681D7
:100C3000DC01ED91FC910190F081E02DAA85BB854E
:100C40006C910995EA85FB856081CF010E940E02B7
:100C5000AA85BB8515968D919C911697DC01ED9127
:100C6000FC910190F081E02D682D09956B818A85BA
:100C70009B850E940E02EA85FB8585819681DC01B9
:100C8000ED91FC910190F081E02D662D0995662D86
:100C90008A859B850E940E0275012E813F81E21696
:100CA000F306B1F0EA85FB85858196818701DC0139
:100CB000ED91FC910190F081E02DD7016D917D01C6
:100CC0000995F80160818A859B850E940E02E5CF17
:100CD0007101AA85BB8515968D919C9116972885E3
:100CE0003985E216F30691F08701DC01ED91FC9164
:100CF0000190F081E02DD7016D917D010995F801FA
:100D000060818A859B850E940E02E3CFDC01ED9114
:100D1000FC91AA85BB8514966C910190F081E02D21
:100D20000995EA85FB8585819681DC01ED91FC9131
:100D30000190F081E02DAA85BB8513966C910995F1
:100D400064E670E08A859B850E94B6038F3F91051B
:100D500009F07DC0EA85FB85548243826FEFCF01A5
:100D60000E940E0265E070E08A859B850E94B603B2
:100D7000AA85BB856C91262F30E08217930709F076
:100D800066C0CD010E940E026AE070E08A859B85F4
:100D90000E94B6037C0197FD5AC0682F8A859B8507
:100DA0000E940E026AE070E08A859B850E94B6036D
:100DB0008C0197FD4CC0682F8A859B850E940E028E
:100DC000EA821982E981FA810E0F1F1FE12CF12CB2
:100DD00065E070E08A859B85E016F106A9F0EC14C9
:100DE000FD0491F00E94B60397FD0AC0EC81FD81DD
:100DF000EE0DFF1D8083682F8A859B850E940E0261
:100E0000FFEFEF1AFF0AE4CF0E94B6037C0197FDC3
:100E10001EC065E070E08A859B850E94B60397FD41
:100E200016C0FE2CEE248E0D9F1DAA85BB85139641
:100E30002D913C9114972817390749F48C918F5FB5
:100E40008C93C801C016D10680F4C6010EC09394DD
:100E500064E670E080E090E00E9470038A859B85E4
:100E60000E94A805C4CE8FEF9FEF2B960FB6F89483
:100E7000DEBF0FBECDBFDF91CF911F910F91FF90CD
:100E8000EF90DF90CF90BF90AF909F908F907F902A
:100E90006F905F904F903F902F900895AF92BF92C8
:100EA000CF92DF92EF92FF920F931F93CF93DF9336
:100EB00000D01F92CDB7DEB7FC01E85AFF4F20816A
:100EC0002F3F11F15A019B0147E64983319640813A
:100ED0004A833997CC24C394D12CCE0103967C014C
:100EE000850142E050E0BE016F5F7F4F80819181BC
:100EF0000E94C4058B81882329F090E0919581950B
:100F0000910904C0C50102C08FEF9FEF0F900F90B1
:100F10000F90DF91CF911F910F91FF90EF90DF9095
:100F2000CF90BF90AF9008956F927F928F929F92D3
:100F3000AF92BF92CF92DF92EF92FF920F931F93E7
:100F4000CF93DF93CDB7DEB728970FB6F894DEBF07
:100F50000FBECDBF5C018B01FC011382128288EEB3
:100F600093E0A0E0B0E084839583A683B78388E113
:100F700091E0918380833501F0E56F0E711CF301E0
:100F8000318320837501F2E5EF0EF11C60EA72E017
:100F9000C70148870E947E02450188E5880E911CA2
:100FA0004885F40140830115110569F0F8010190AD
:100FB0000020E9F73197AF01401B510BB801C70181
:100FC0000E944E020EC0F70180819181009711F0BE
:100FD0000E942C19F701118210821582148213824B
:100FE000128282E7898387E78A8381E68B8386E49E
:100FF0008E83F4018081FE01E80FF11D81818F83D2
:1010000081E090E0F50197878687EA5AFF4F0081DB
:101010001181F7012081318182E0C82ED12CCE01CF
:1010200004967C0142E050E0BE016A5F7F4FF3010D
:10103000808191810E94C4058C81882321F08FEFEB
:10104000F401808307C0F501E75AFF4F8D8180834B
:10105000F501148628960FB6F894DEBF0FBECDBFFB
:10106000DF91CF911F910F91FF90EF90DF90CF9084
:10107000BF90AF909F908F907F906F9008958F92C8
:101080009F92AF92BF92CF92DF92EF92FF920F9317
:101090001F93CF93DF931F92CDB7DEB75C019B0107
:1010A0004A01DC0152968C91811105C07B018B01B4
:1010B000040F151F31C080E58983C12CD12CE12C90
:1010C000F12C8A0141E050E0BE016F5F7F4FF501D6
:1010D000848595850E94C40522C0D5015596ED9161
:1010E000FC91569753968C91539791E0980F539695
:1010F0009C93D7019D917D01E80FF11D9083F5012F
:1011000093898489981308C00190F081E02D0284AE
:10111000F385E02DC5010995E016F106F1F6C4014D
:101120000F90DF91CF911F910F91FF90EF90DF9083
:10113000CF90BF90AF909F908F900895CF92DF9205
:10114000EF92FF920F931F936801790100E010E086
:1011500020E030E00E94C4051F910F91FF90EF90B6
:10116000DF90CF900895AF92BF92CF92DF92EF922F
:10117000FF920F931F93CF93DF9300D000D0CDB792
:10118000DEB75C0182E58B83D5011F96ED91FC9162
:101190005097048115812081318142E0C42ED12CE9
:1011A000FE0131967F0141E050E0BE016D5F7F4F4F
:1011B0001C968D919C911D970E94C4058A81D50132
:1011C0001E968C931E971F960D911C91509701159A
:1011D000110531F0C8010E947902C8010E942C1942
:1011E000F501108A17868981811102C081E0818B07
:1011F00032E7F32EF982D5011E968C911E978A83D1
:1012000001E010E09E012D5F3F4F42E050E0BE0143
:101210006F5F7F4F1C968D919C911D970E949E0839
:101220008B81813039F464E670E080E090E00E94C8
:101230007003E0CF87E58B83F50186858C8302E020
:1012400010E09E012F5F3F4F42E050E0BE016D5F16
:101250007F4F848595850E949E08898190E0982F14
:1012600088272A81820F911D0F900F900F900F9069
:10127000DF91CF911F910F91FF90EF90DF90CF9072
:10128000BF90AF900895EF92FF920F931F93CF936B
:10129000DF9300D01F92CDB7DEB7FC012289211168
:1012A00018C07C01138A8FE4898380E48B83868550
:1012B0008A839F012C5E3F4F00E410E043E050E042
:1012C000BE016F5F7F4F848595850E949E08F70160
:1012D000828B0F900F900F90DF91CF911F910F9104
:1012E000FF90EF900895CF93DF93EC010E944309A4
:1012F0008A89882331F08B89C80FD11D8C8990E0B1
:1013000002C08FEF9FEFDF91CF910895CF93DF93CE
:10131000EC010E9443098A89882359F081508A8B05
:101320008B8991E0980F9B8BC80FD11D8C8990E021
:1013300002C08FEF9FEFDF91CF910895CF93DF939E
:10134000EC010E9443098A8990E0DF91CF910895D2
:10135000EF92FF920F931F93CF93DF9300D01F92D2
:10136000CDB7DEB77C0128E5E20EF11CF701208144
:101370002F3FB9F026E62983319620812A833997B9
:1013800001E010E09E012D5F3F4F42E050E0BE01C2
:101390006F5F7F4F808191810E949E088FEFF701E0
:1013A00080830F900F900F90DF91CF911F910F913D
:1013B000FF90EF900895CF93DF93EC0188E191E0E7
:1013C00099838883CE010E94A809CE018E5A9F4F2F
:1013D000DF91CF910C947902EF92FF920F931F93BC
:1013E000CF93DF9300D01F92CDB7DEB7FC012485E9
:1013F000211128C07C01158687E489838FE38B83C4
:10140000E75AFF4F80818A839701205F3F4F3997CA
:1014100000E410E043E050E0BE016F5F7F4F808149
:1014200091810E949E089C01215031092E3F3F4F1F
:1014300018F0F701148606C0F70195859F5F958720
:10144000815084870F900F900F90DF91CF911F9163
:101450000F91FF90EF900895CF93DF93EC010E94DE
:10146000EC098C8590E0DF91CF910895CF93DF93C5
:10147000EC010E94EC098C85882331F08D85C80F22
:10148000D11D888990E002C08FEF9FEFDF91CF914F
:101490000895CF93DF93EC010E94EC098C8588239B
:1014A00059F081508C878D8591E0980F9D87C80FEA
:1014B000D11D888990E002C08FEF9FEFDF91CF911F
:1014C0000895EF92FF920F931F93CF93DF9300D075
:1014D000CDB7DEB7FC012685211115C07C0117862A
:1014E00080E7898380E28A832089318900E210E0E5
:1014F00042E050E0BE016F5F7F4F848595850E947A
:101500009E08F70186870F900F90DF91CF911F9172
:101510000F91FF90EF900895CF93DF93EC010E941D
:10152000610A8E85882341F08F85E889F989E80F63
:10153000F11D808190E002C08FEF9FEFDF91CF918E
:101540000895CF93DF93EC010E94610A8E85882372
:1015500069F081508E87E889F9898F8591E0980F2D
:101560009F87E80FF11D808190E002C08FEF9FEF11
:10157000DF91CF910895CF93DF93EC010E94610A30
:101580008E8590E0DF91CF9108950F931F9300E037
:1015900010E020E030E00E949E081F910F91089516
:1015A0000F931F93CF93DF9300D0CDB7DEB78C019D
:1015B000FC018189882369F087E7898386858A838E
:1015C00042E050E0BE016F5F7F4F848595850E94A9
:1015D000C50AF801118A0F900F90DF91CF911F91EA
:1015E0000F910895EF92FF920F931F93CF93DF9384
:1015F0007C018B010E94D00A86E090E00E9497183F
:10160000EC01198218821B821A821D821C828017AB
:10161000910751F0F801608171816115710521F028
:10162000448155810E944E02F701D08BC787DF911C
:10163000CF911F910F91FF90EF900895CF93DF937B
:1016400000D01F92CDB7DEB729E42983FC0126859F
:101650002A836B8343E050E0BE016F5F7F4F848538
:1016600095850E94C50A81E090E00F900F900F9041
:10167000DF91CF910895CF93DF93FC01228921114F
:101680000BC0EC01438950E0658976898485958596
:101690000E94C50A81E08B8BDF91CF910895CF9393
:1016A000DF9300D0CDB7DEB7DC0152968C91529714
:1016B000882379F080E589836A8342E050E0BE01A7
:1016C0006F5F7F4F1C968D919C911D970E94C50A5C
:1016D0001FC05596ED91FC91569753968C91539758
:1016E00091E0980F53969C935397E80FF11D6083F8
:1016F00053969C91539754968C915497981308C085
:10170000ED91FC9111970284F385E02DCD010995AF
:1017100081E090E00F900F90DF91CF910895CF93EB
:10172000DF93EC01863091052CF08D3091058CF41F
:10173000069789F445EC61EB8CEE94E00E948504F9
:101740004CE067EB8CEE94E00E948504C6E0D0E0AC
:101750000EC0CCE0D0E043EC61EB8CEE94E00E9454
:1017600085044AE067EB8CEE94E00E9485046EE10C
:101770008CEE94E00E94B40494E0CC0FDD1F9A95A7
:10178000E1F78F704C2F482B6EE98CEE94E0DF91DF
:10179000CF910C948504AF92BF92CF92DF92EF92DB
:1017A000FF920F931F93CF93DF9370930105609384
:1017B00000056B017C01FF0CCC08DC2C76019B0141
:1017C000AC016C2D7C2D8C2D9C2D03E10E942A18E0
:1017D000A12CE8E4BE2EF8EECF2EDD24D394E12C2C
:1017E000F12C00E010E00E94CD17F22EB32E142F42
:1017F000D52FC62FC72ED82EE92E00E10E944518FE
:10180000422F66E88CEE94E00E9485042F2D3B2D3C
:10181000412F5D2F6C2F7C2D8D2D9E2D08E00E9479
:101820004518422F67E88CEE94E00E9485044F2D06
:1018300068E88CEE94E0DF91CF911F910F91FF90BB
:10184000EF90DF90CF90BF90AF900C94850490E024
:10185000FC01E452FF4F2491FC01E853FF4F8491B7
:10186000882399F090E0880F991FFC01E254FF4F04
:10187000A591B491FC01EC54FF4F859194918FB7E1
:10188000F894EC91E22BEC938FBF08954F925F9206
:101890006F927F928F929F92AF92BF92CF92DF9280
:1018A000EF92FF920F931F93CF93DF93CDB7DEB7E5
:1018B000A1970FB6F894DEBF0FBECDBF8C016B01B0
:1018C000770FEE08FF08F7FE2FC0DC01ED91FC91C9
:1018D0000190F081E02D6DE209955C01222733270C
:1018E000A9012C193D094E095F0919A2FE01B19603
:1018F0007F019AE0492E512C612C712CCA01B9014B
:10190000A30192010E94A317605DD7016E937D0130
:10191000211531054105510589F7BD01C8010E9416
:10192000B702A80EB91E1FC0A701960119A2FE0199
:10193000B1967F018AE0882E912CA12CB12CCA018E
:10194000B901A50194010E94A317605DD7016E93B0
:101950007D01211531054105510589F7BD01C801FA
:101960000E94B7025C016EE972E0C8010E94B702F2
:101970008A0D9B1DA1960FB6F894DEBF0FBECDBF9A
:10198000DF91CF911F910F91FF90EF90DF90CF905B
:10199000BF90AF909F908F907F906F905F904F908F
:1019A0000895EF92FF920F931F93CF93DF93CDB7DC
:1019B000DEB7CA55D1090FB6F894DEBF0FBECDBF52
:1019C0007C011C821B8288EE93E0A0E0B0E08D8356
:1019D0009E83AF83B88708E211E01A83098387EA00
:1019E00095E09E878D871A8A1B8A1C8A61EA72E0BD
:1019F000CE018B5A9F4F0E947E02BE016B5A7F4FD1
:101A0000CE0101960E94F20ACE018B5A9F4F0E948E
:101A10007902B701CE018B5A9F4F0E947E02BE0110
:101A20006B5A7F4FCE0101960E945A05CE018B5A08
:101A30009F4F0E947902CE0101960E94B3087C015B
:101A40001A830983CE0101960E94D00A81E0EF2813
:101A500009F080E0C65ADF4F0FB6F894DEBF0FBE24
:101A6000CDBFDF91CF911F910F91FF90EF9008951F
:101A700010920505109204056DE18CEE94E00E9431
:101A8000B404482F4E7F6DE98CEE94E00C948504ED
:101A900043E861E88CEE94E00E94850462E18CEEFC
:101AA00094E00E94B40483FFF9CF48E062E98CEE31
:101AB00094E00E94850481E090E0089541E861E8A7
:101AC0008CEE94E00E9485040E94380D40E06DE8A1
:101AD0008CEE94E00E94850440E062EA8CEE94E093
:101AE0000E94850481E090E00895CF93DF93CDB705
:101AF000DEB7C45CD1090FB6F894DEBF0FBECDBF10
:101B0000789484B5826084BD84B5816084BD85B5D8
:101B1000826085BD85B5816085BD80916E008160E4
:101B200080936E001092810080918100826080938A
:101B3000810080918100816080938100809180008C
:101B40008160809380008091B10084608093B100B7
:101B50008091B00081608093B00080917A008460B1
:101B600080937A0080917A00826080937A008091DD
:101B70007A00816080937A0080917A0080688093F7
:101B80007A001092C100E091B005F091B105A089F2
:101B9000B18982E08C93A485B5851C92A685B78512
:101BA00080E18C93108EA489B58986E08C93A289FC
:101BB000B3898C9180618C93A289B3898C91886060
:101BC0008C93A289B3898C9180688C930288F38965
:101BD000E02D80818F7D80838091AE058111D5C0FD
:101BE00081E08093AE0587EA95E00E94A80568EE43
:101BF00073E080E090E00E9470038091AC059091CA
:101C0000AD05DC01ED91FC910480F581E02D099595
:101C10001816190644F395E0F92EEE24E39422E316
:101C2000D22EEAE0F1E0DE01A55ABF4F8F2D0190E0
:101C30000D928A95E1F7E092AF0545E050E0BE01D4
:101C4000655A7F4F87EA95E00E94C50A8091AC05EE
:101C50009091AD05DC01ED91FC910190F081E02DBA
:101C600063E009956AEF70E080E090E00E94700305
:101C70006AE870E08091AC059091AD050E949302F6
:101C80006AEF70E080E090E00E94700368E870E026
:101C90008091AC059091AD050E94930264EF71E0D4
:101CA00080E090E00E9470036CE770E08091AC05EA
:101CB0009091AD050E94930264EF71E080E090E0A6
:101CC0000E94700387EA95E00E94A805EFE0F1E02A
:101CD000DE0111968F2D01900D928A95E1F7D09239
:101CE000AF0504E010E09E012B543F4F45E050E06B
:101CF000BE016F5F7F4F87EA95E00E949E088F3F8D
:101D0000BFEF9B0739F468EE73E080E090E00E943B
:101D1000700387CFCB54DF4F2881C55BD0402111A2
:101D2000FFCF049749F5CA54DF4F2881C65BD040E6
:101D300030E02053310984E6829FA001839F500D3B
:101D40001124C954DF4F2881C75BD04030E02053B5
:101D500031096AE0629FC001639F900D1124840FD6
:101D6000951FC854DF4F2881C85BD04030E0205316
:101D70003109820F931F02C084E690E09093A90579
:101D80008093A80582E38093AF0527EA35E041E020
:101D90006CE771E0CE0101960E9494074091BA056C
:101DA0005091BB056091B6057091B705CE010196C3
:101DB0000E944E07CE0101960E94A809CE0101960D
:101DC0000E94DB091C821B8288EE93E0A0E0B0E059
:101DD0008D839E83AF83B88788E291E09A8389835D
:101DE00087EA95E09E878D871A8A1B8A1C8A3E01A6
:101DF000EBE56E0E711C80E2D3011D928A95E9F726
:101E00008E010B541F4F60E971E0C8010E947E02F1
:101E1000B801CE0101960E94F20AC8010E9479021F
:101E200064E971E0C8010E947E02B801CE0101960A
:101E30000E945A05C8010E94790268E971E0C80150
:101E40000E947E02B801CE0101960E945A05C80187
:101E50000E947902CE0101960E94B30873015301DA
:101E6000B9E0AB0EB11C6301CE0101960E9443099B
:101E70008B89882359F0CA14DB0441F0CE01019606
:101E80000E948609F60181936F01EECFC3010E9483
:101E9000741D6093B7037093B8038093B903909354
:101EA000BA0380E2F30111928A95E9F760E971E0E3
:101EB000C8010E947E02B801CE0101960E94F20A7A
:101EC000C8010E94790264E971E0C8010E947E02A3
:101ED000B801CE0101960E945A05C8010E947902FC
:101EE0006DE172E0C8010E947E02B801CE01019648
:101EF0000E945A05C8010E947902CE0101960E94F3
:101F0000B3085301FAE0AF0EB11C6301CE01019694
:101F10000E9443098B89882359F0CA14DB0441F0DD
:101F2000CE0101960E948609D6018D936D01EECFF8
:101F3000C3010E94741D6093BD037093BE03809320
:101F4000BF039093C00380E2D3011D928A95E9F705
:101F500060E971E0C8010E947E02B801CE010196DD
:101F60000E94F20AC8010E94790264E971E0C80186
:101F70000E947E02B801CE0101960E945A05C80156
:101F80000E94790268E372E0C8010E947E02B801F3
:101F9000CE0101960E945A05C8010E947902CE0125
:101FA00001960E94B3086301B3E0CB0ED11C53012C
:101FB000CE0101960E9443098B89882359F0AC1405
:101FC000BD0441F0CE0101960E948609F50181937E
:101FD0005F01EECFC3010E94781D1816190614F098
:101FE0008AE090E09093B6038093B50380E2D3013A
:101FF0001D928A95E9F760E971E0C8010E947E02AE
:10200000B801CE0101960E94F20AC8010E9479022D
:1020100064E971E0C8010E947E02B801CE01019618
:102020000E945A05C8010E94790263EB71E0C80161
:102030000E947E02B801CE0101960E945A05C80195
:102040000E947902CE0101960E94B3085301CE018D
:1020500001960E9443098B89882359F0AC14BD0472
:1020600041F0CE0101960E948609F50181935F013E
:10207000EECFC3010E94781D1816190614F089E0EE
:1020800090E09093BC038093BB0380E2D3011D9248
:102090008A95E9F760E971E0C8010E947E02B80103
:1020A000CE0101960E94F20AC8010E94790264E9F9
:1020B00071E0C8010E947E02B801CE0101960E9423
:1020C0005A05C8010E94790266EC71E0C8010E94BD
:1020D0007E02B801CE0101960E945A05C8010E94F5
:1020E0007902CE0101960E94B3085301B2E0AB0E13
:1020F000B11C6301CE0101960E9443098B8988239C
:1021000059F0CA14DB0441F0CE0101960E94860901
:10211000F60181936F01EECFC3010E94781D909369
:10212000AA028093A90280E2F30111928A95E9F74D
:1021300060E971E0C8010E947E02B801CE010196FB
:102140000E94F20AC8010E94790264E971E0C801A4
:102150000E947E02B801CE0101960E945A05C80174
:102160000E94790269E472E0C8010E947E02B8010F
:10217000CE0101960E945A05C8010E947902CE0143
:1021800001960E94B3084301F5E08F0E911C630194
:10219000CE0101960E9443098B89882359F0C81407
:1021A000D90441F0CE0101960E948609D6018D9393
:1021B0006D01EECFC3010E94961D6093A50270933E
:1021C000A6028093A7029093A80280E2D3011D92F9
:1021D0008A95E9F760E971E0C8010E947E02B801C2
:1021E000CE0101960E94F20AC8010E94790264E9B8
:1021F00071E0C8010E947E02B801CE0101960E94E2
:102200005A05C8010E94790260E672E0C8010E9486
:102210007E02B801CE0101960E945A05C8010E94B3
:102220007902CE0101960E94B308CE0101960E9468
:1022300043098B89882359F0EA14FB0441F0CE014D
:1022400001960E948609F70181937F01EECFC301B9
:102250000E94781D8A30910508F4B5C388E498EE91
:10226000A1E0B0E08093AB029093AC02A093AD02EA
:10227000B093AE0288E291E09A838983CE01019601
:102280000E94D00A6091B7037091B8038091B9039E
:102290009091BA030E9461184B015C018091FA048D
:1022A0000E94270C8091FC040E94270C60E0809122
:1022B000FC040E9424036AE070E080E090E00E9449
:1022C000700361E08091FC040E9424036AE070E0E6
:1022D00080E090E00E94700361E08091FA040E9427
:1022E0002403FFB6F8948091A402811124C0E2ED8A
:1022F000F0E08491E6EEF0E09491E82FF0E0EE0F4C
:10230000FF1FE254FF4FA591B491EC91E92321F412
:1023100061E08AE00E9424038AE00E94270C8CB5C9
:1023200080618CBD8CB580648CBD8DE00E94270CD3
:102330008BE00E94270C8091A4028F5F8093A402FF
:10234000FFBE62E48CEE94E00E94B4048231A1F5F9
:1023500040E861E88CEE94E00E948504C501B40178
:102360000E94CB0B40E06EE88CEE94E00E94850466
:1023700040E06FE88CEE94E00E9485046CE08CEE07
:1023800094E00E94B404482F43606CE88CEE94E023
:102390000E94850444E066EA8CEE94E00E94850485
:1023A0004FE869E88CEE94E00E94850441E861E81A
:1023B0008CEE94E00E9485046091B7037091B8039D
:1023C0008091B9039091BA030E9461180E94CB0BCF
:1023D0008091B5039091B6030E948F0B6091AB0280
:1023E0007091AC028091AD029091AE020E945F1F8D
:1023F0006B017C0120E030EC43EF55E40E94581F54
:1024000018160CF056C020E030E842E256E4C7014E
:10241000B6010E94581F18160CF04EC020E030EC98
:1024200043E756E4C701B6010E94581F18160CF086
:1024300046C020E030E842EA56E4C701B6010E94F7
:10244000581F18160CF03EC020E034E244EF56E46A
:10245000C701B6010E94581F1816BCF520E034EEE3
:1024600042E257E4C701B6010E94581F181684F5CE
:1024700020E034E244E757E4C701B6010E94581F48
:1024800018164CF520E034E244EF57E4C701B601DA
:102490000E94581F181614F520E034E244E758E46F
:1024A000C701B6010E94581F1816DCF449E050E03D
:1024B0001AC040E050E017C041E050E014C042E0D4
:1024C00050E011C043E050E00EC044E050E00BC0CB
:1024D00045E050E008C046E050E005C047E050E06D
:1024E00002C048E050E06DE18CEE94E0CD53DF4F48
:1024F0004883C35CD040CC53DF4F5883C45CD0408A
:102500000E94B404CD53DF4F4881C35CD040CC530C
:10251000DF4F5881C45CD040B4E0440F551FBA95DA
:10252000E1F78F70482B6DE98CEE94E00E948504F2
:10253000E090A902F090AA02F5E0EF16F10444F051
:1025400029E0E216F1043CF0A8E0EA2EF12C03C0E9
:10255000F5E0EF2EF12C6DE18CEE94E00E94B404D6
:1025600034E0E31AF108EE0CFF1C817F482F4E295E
:102570006DE98CEE94E00E94850444E369EB8CEEF7
:1025800094E00E948504C090A502D090A602E0903D
:10259000A702F090A8027727F7FC7A956F2D5E2DA1
:1025A0004D2D60EA8CEE94E00E9485044C2D61EA8A
:1025B0008CEE94E00E94850468EE73E080E090E089
:1025C0000E947003212C3324339478EE872E73E01D
:1025D000972EA12CB12CE8E24E2EE1E05E2EC80130
:1025E0000296CF53DF4F99838883C15CD04080919E
:1025F000E1049091E204009709F084C08091B50352
:102600009091B6030E948F0B0E94380D45E861E857
:102610008CEE94E00E94850462E18CEE94E00E94CE
:10262000B404F82E0E94380D4F2D62E98CEE94E030
:102630000E948504F6FE27C0F5FC25C01092030514
:10264000109202058091040590910505892B11F0E7
:1026500062E201C063E18CEE94E00E94B404E82ED3
:10266000F12C60E18CEE94E00E94B404482F6DE8F8
:102670008CEE94E00E94850441E861E88CEE94E0E1
:102680000E94850415C061E08CEE94E00E94B404C1
:10269000863861F040E06DE88CEE94E00E9485049D
:1026A00046E861E88CEE94E00E948504E12CF12C70
:1026B000F092B003E092AF03EF2809F4ADCFAFEA98
:1026C000B2E0F1011D923197E9F73FEAC32E32E003
:1026D000D32EE12CF12C8CEE94E00E940105892B85
:1026E00009F40CC1E114E1E0FE0609F407C18CEE27
:1026F00094E00E94E604D6018D936D01BFEFEB1AC2
:10270000FB0AE9CF019709F0CCC00E94AA036093AD
:10271000B2057093B3058093B4059093B5056093AB
:10272000B1037093B2038093B3039093B403809189
:10273000B1039091B203A091B303B091B40340915F
:10274000B2055091B3056091B4057091B505841B35
:10275000950BA60BB70B80319742A105B1050CF084
:102760005BC00E94AA036093B1037093B20380938D
:10277000B3039093B40386E092E00E94D10C8111E0
:1027800007C068EE73E080E090E00E947003CFCF56
:1027900027EA35E040E066E072E0CE0101960E9453
:1027A0009407E1ECF3E09101119221503040E1F700
:1027B00021ECC22E23E0D22EE12CF12CCE01019689
:1027C0000E94EC098D85882309F4B1C1E114E1E090
:1027D000FE0609F4ACC1CE0101960E94490AD60159
:1027E0008D936D01BFEFEB1AFB0AE8CF6091B70341
:1027F0007091B8038091B9039091BA030E94611857
:102800000E94CB0B8091B5039091B6030E948F0B71
:10281000CE0101960E94DB091C821B828D829E8262
:10282000AF82B8865A82498287EA95E09E878D8773
:102830001A8A1B8A1C8A66E172E0C3010E947E022A
:10284000B301CE0101960E94F20AC3010E947902EF
:1028500069E172E0C3010E947E02B301CE010196DC
:102860000E945A05C3010E94790266E072E0C3012A
:102870000E947E02B301CE0101960E945A05C30157
:102880000E947902CE0101960E94B3081092E204E0
:102890001092E1045A824982CE0101960E94D00A28
:1028A0008FC027EA35E040E061EC74E0CE0101968C
:1028B0000E949407A1ECB3E0F1011D923197E9F772
:1028C00091ECC92E93E0D92EE12CF12CCE0101968A
:1028D0000E94EC098D85882309F4BFC1E114E1E071
:1028E000FE0609F4BAC1CE0101960E94490AD6013A
:1028F0008D936D01BFEFEB1AFB0AE8CF27EA35E0B5
:1029000041E061E772E0C3010E94940762E872E06F
:10291000C3010E94B7026AE18CEE94E00E94B40405
:10292000D82E6091000570910105072E000C880BD0
:10293000990B0E945F1F24E832EF4EE45EE40E9490
:10294000581F87FD72C08DE990E06D2D70E0681B07
:10295000790BC3010E94460C6DED71E0C3010E942A
:10296000B7026091AF037091B003C3010E94460C9F
:10297000C3010E94A80927EA35E041E063EE71E057
:10298000CE0101960E949407A7016FEA72E0CE0182
:1029900001960E944E07CE0101960E94A8098091DF
:1029A000AF02811145C081E090E09093E2048093F2
:1029B000E104CE0101960E94DB09C3010E94DB09FC
:1029C0000E94AF0114CEFC01EC5CFF4F0C94C517C4
:1029D00088E79EE1A0E0B0E045CC80EA98E2A0E084
:1029E000B0E040CC80EF9CE3A0E0B0E03BCC80E4E2
:1029F00091E5A0E0B0E036CC82E19AE7A0E0B0E05B
:102A000031CC84EE92EAA0E0B0E02CCC84E294EFEA
:102A1000A0E0B0E027CC80E990EDA3E0B0E022CCCC
:102A200080E291EAA7E0B0E01DCC84EA90E08DCF8F
:102A30008CE0D8011D928A95E9F78091B3021F922C
:102A40008F938091B2021F928F938091B1021F9257
:102A50008F938091B0021F928F93A1EFB1E0BF934B
:102A6000AF931F930F930E94D31AF8010190002097
:102A7000E9F73197E01BF10B0FB6F894DEBF0FBEFC
:102A8000CDBF3997E0F0CF53DF4F28813981C15C4A
:102A9000D040D801E12CF12CF80101900020E9F799
:102AA000CF01801B910B0397E816F90640F4F9015A
:102AB00081919F018D93FFEFEF1AFF0AEDCFF8018F
:102AC000EE0DFF1D1082E1ECF4E080E2DF01282F23
:102AD0001D922A95E9F71F930F932AEF31E03F9358
:102AE0002F931F928F93FF93EF930E94A31A81EC71
:102AF00094E00E94D10C0FB6F894DEBF0FBECDBF9C
:102B0000882331F082E090E09093E2048093E10426
:102B10006CE870E08CEB95E00E9493026091E10418
:102B20007091E2048CEB95E00E94460C42CFCE01FE
:102B300001960E94A809B3E0EB16F1045CF468EC7E
:102B400070E080E090E00E947003CE0101960E9448
:102B5000DB09EDCD0E94AA036093B1037093B20329
:102B60008093B3039093B4038091B1039091B20327
:102B7000A091B303B091B4034091B2055091B30555
:102B80006091B4057091B505841B950BA60BB70B2E
:102B900080349F41A105B10594F40E945E0DA70108
:102BA00061EC73E08CEE94E00E9412050E94480DE7
:102BB00061E070E080E090E00E947003CBCF609114
:102BC000BD037091BE038091BF039091C0030E942A
:102BD00061180E94CB0B8091BB039091BC030E94B3
:102BE0008F0B62E070E080E090E00E9470038091C3
:102BF000B1039091B203A091B303B091B40340919B
:102C0000B2055091B3056091B4057091B505841B70
:102C1000950BA60BB70B803E9E42A105B1050CF0AB
:102C2000E5CD0E945E0DA70161EC73E08CEE94E0AF
:102C30000E9412050E94480D61E070E080E090E083
:102C40000E9470030E94AA036093B1037093B203C1
:102C50008093B3039093B403CACFCE0101960E9430
:102C6000A809E3E0EE16F1041CF4CE010196A6CE0D
:102C700085E0C82ED12C0E945E0DA70161EC73E0A7
:102C80008CEE94E00E9412050E94480D6AE070E00C
:102C900080E090E00E9470036091BD037091BE03DC
:102CA0008091BF039091C0030E9461180E94CB0BDA
:102CB0008091BB039091BC030E948F0B64E170E094
:102CC00080E090E00E9470030E945E0DA70161EC1D
:102CD00073E08CEE94E00E9412050E94480D64E1BE
:102CE00070E080E090E00E9470036091B703709103
:102CF000B8038091B9039091BA030E9461180E94B1
:102D0000CB0B8091B5039091B6030E948F0B64EFBB
:102D100071E080E090E00E947003F1E0CF1AD108EA
:102D200009F0A9CFD30113961C921E921297F301BA
:102D300084829582A682B7825182408287EA95E09A
:102D400095878487118A128A138A66E172E0C80126
:102D50000E947E02B801C3010E94F20AC8010E94CB
:102D6000790269E172E0C8010E947E02B801C301E4
:102D70000E945A05C8010E94790261EC74E0C80102
:102D80000E947E02B801C3010E945A05C8010E9438
:102D90007902C3010E94B3081092E2041092E10488
:102DA000D3014D925C92C3010E94D00A5ECF86EBA4
:102DB00095E00E94790280E791E09093BD058093B1
:102DC000BC058091CE0581110BC08091D1059091F9
:102DD000D205009711F00E942C1981E08093CE0556
:102DE0008091CC059091CD05009711F00C942C1991
:102DF0000895CF93DF93EAE0F5E01382128248EE64
:102E000053E060E070E0448355836683778388E312
:102E100091E09183808385EC90E09587848784ECB2
:102E200090E09787868780EC90E0918B808B81EC97
:102E300090E0938B828B82EC90E0958B848B86EC78
:102E400090E0978B868B118E128E138E148EACEEC3
:102E5000B4E013961C921E92129714964D935D93B4
:102E60006D937C93179788E491E011969C938E93D1
:102E700080E51C968C931C9781E01D968C931D9782
:102E80002AE030E01F963C932E931E9729E030E015
:102E900051963C932E93509722E030E053963C930A
:102EA0002E93529755961C921E92549757961C92A9
:102EB0001E92569759961C921E9258975B961C929A
:102EC0001E925A97C7EAD5E0D0930905C09308052A
:102ED000ACEBB5E013961C921E92129714964D938C
:102EE0005D936D937C93179720E731E011963C93A7
:102EF0002E931D96DC93CE931C971E961C921E97C4
:102F00001F961C921F9751961C921E925097529694
:102F10008C931882FE83ED831F821886FA87E987D7
:102F20006AE872E086EB95E00E947E020E94AA03A6
:102F30006093B2057093B3058093B4059093B50583
:102F4000DF91CF910895A1E21A2EAA1BBB1BFD01B0
:102F50000DC0AA1FBB1FEE1FFF1FA217B307E40778
:102F6000F50720F0A21BB30BE40BF50B661F771FD0
:102F7000881F991F1A9469F76095709580959095B0
:102F80009B01AC01BD01CF010895EE0FFF1F05901D
:102F9000F491E02D0994689401C0E8948F929F9277
:102FA000CF93DF930E94D917DF91CF919F908F909D
:102FB000089588249924F401E401B0E49F93AA279A
:102FC0009A158B049C04ED05FE05CF05D007A107DB
:102FD00098F4AD2FDC2FCF2FFE2FE92D982C892EC2
:102FE000982F872F762F652F542F432F322F22278C
:102FF000B85031F7BF9127C01B2EBF91BB27220FBE
:10300000331F441F551F661F771F881F991F881C79
:10301000991CEE1FFF1FCC1FDD1FAA1FBB1F8A14A8
:103020009B04EC05FD05CE05DF05A007B10748F0C0
:103030008A189B08EC09FD09CE09DF09A00BB10B2A
:1030400021601A94E1F62EF49401AF01BE01CD0186
:10305000000C08950F93083090F0982F872F762F4B
:10306000652F542F432F322F22270850F4CF220FE1
:10307000331F441F551F661F771F881F991F0A950E
:10308000B2F70F91089597FB10F8169400080F936C
:10309000083098F00850232F342F452F562F672FD4
:1030A000782F892F902DF4CF059497958795779554
:1030B000679557954795379527950A95AAF70F91E4
:1030C00008950E9468186894B1110C9479200895AD
:1030D0000E945E2088F09F5798F0B92F9927B7512A
:1030E000B0F0E1F0660F771F881F991F1AF0BA95AC
:1030F000C9F714C0B13091F00E947820B1E0089572
:103100000C947820672F782F8827B85F39F0B93F63
:10311000CCF3869577956795B395D9F73EF490955E
:103120008095709561957F4F8F4F9F4F0895CF93F6
:10313000DF938230910510F482E090E0E091D505B4
:10314000F091D60520E030E0C0E0D0E0309711F1FA
:103150004081518148175907C0F04817590761F459
:1031600082819381209719F09B838A832BC090934F
:10317000D6058093D50526C02115310519F04217D3
:10318000530718F49A01BE01DF01EF010280F381B9
:10319000E02DDCCF2115310509F1281B390B243036
:1031A000310590F412968D919C91139761157105DC
:1031B00021F0FB019383828304C09093D605809312
:1031C000D505FD01329644C0FD01E20FF31F819346
:1031D0009193225031092D933C933AC02091D3050D
:1031E0003091D405232B41F4209106013091070141
:1031F0003093D4052093D30520910401309105012B
:103200002115310541F42DB73EB740910801509189
:103210000901241B350BE091D305F091D405E21789
:10322000F307A0F42E1B3F0B2817390778F0AC01E9
:103230004E5F5F4F2417350748F04E0F5F1F5093C6
:10324000D4054093D3058193919302C0E0E0F0E070
:10325000CF01DF91CF9108950F931F93CF93DF9309
:10326000009709F48CC0FC013297138212820091FE
:10327000D5051091D6050115110581F42081318104
:10328000820F931F2091D3053091D4052817390759
:1032900079F5F093D405E093D30571C0D80140E0EF
:1032A00050E0AE17BF0750F412962D913C91139742
:1032B000AD012115310509F1D901F3CF9D01DA01E5
:1032C0003383228360817181860F971F8217930752
:1032D00069F4EC0128813981260F371F2E5F3F4F9B
:1032E000318320838A819B8193838283452B29F4B8
:1032F000F093D605E093D50542C01396FC93EE9368
:103300001297ED01499159919E01240F351FE21743
:10331000F30771F480819181840F951F02961196B5
:103320009C938E938281938113969C938E93129794
:10333000E0E0F0E0D80112968D919C9113970097F0
:1033400019F0F8018C01F6CF8D919C9198012E5FB8
:103350003F4F820F931F2091D3053091D40528173A
:10336000390769F4309729F41092D6051092D505E3
:1033700002C0138212821093D4050093D305DF910B
:10338000CF911F910F910895A0E0B0E0EAECF9E130
:103390000C948E20EC01009721F4CB010E94971829
:1033A000B8C0FC01E60FF71F9C0122503109E2175B
:1033B000F30708F4ACC0D9010D911C9111970617C1
:1033C0001707B0F00530110508F49FC0C801049735
:1033D0008617970708F499C002501109061B170BAE
:1033E000019311936D937C93CF010E942C198DC092
:1033F0005B01A01AB10A4C01800E911EA091D50567
:10340000B091D60540E050E0E12CF12C109709F482
:103410004AC0A815B905D1F56D907C90119763014C
:1034200082E0C80ED11CCA14DB0480F1A3014A1942
:103430005B096A0182E0C80ED11C1296BC901297FB
:103440001396AC91B5E0CB16D10440F0B282A383C1
:1034500051834083D9016D937C930AC00E5F1F4F47
:10346000C301800F911FF90191838083EB2DFA2F07
:10347000E114F10431F0D7011396FC93EE93129707
:1034800044C0F093D605E093D5053FC08D919C9143
:1034900011974817590708F4AC017D0112960D9059
:1034A000BC91A02DB3CF8091D3059091D405881500
:1034B0009905E1F446175707C8F4809104019091EB
:1034C0000501009741F48DB79EB7409108015091D6
:1034D0000901841B950BE817F907C8F4F093D4058C
:1034E000E093D305F901718360830FC0CB010E9483
:1034F00097187C01009759F0A801BE010E94931A09
:10350000CE010E942C19C70104C0CE0102C080E088
:1035100090E0CDB7DEB7EEE00C94AA2081E090E019
:10352000F8940C94D020FB01DC0102C001900D92B4
:1035300041505040D8F70895FB01DC0101900D92F5
:103540000020E1F70895AEE0B0E0E9EAFAE10C947A
:1035500098200D891E898F89988D26E02C831A83E7
:10356000098397FF02C080E090E801979E838D83D6
:10357000AE01455E5F4F698D7A8DCE0101960E9446
:10358000F61A4D815E8157FD0AC02F81388542179A
:1035900053070CF49A01F801E20FF31F10822E96E4
:1035A000E4E00C94B420AEE0B0E0E9EDFAE10C9474
:1035B00098200D891E8986E08C831A8309838FEFFA
:1035C0009FE79E838D83AE01475E5F4F6F89788D45
:1035D000CE0101960E94F61A2F813885F801E20F7C
:1035E000F31F10822E96E4E00C94B420ACE0B0E01F
:1035F000ECEFFAE10C948A207C016B018A01FC015A
:1036000017821682838181FFBDC1CE0101964C01D4
:10361000F7019381F60193FD859193FF81916F01ED
:10362000882309F4ABC1853239F493FD859193FF6A
:1036300081916F01853229F4B70190E00E94DE1C70
:10364000E7CF512C312C20E02032A0F48B3269F0EE
:1036500030F4803259F0833269F420612CC08D320D
:1036600039F0803339F4216026C02260246023C001
:10367000286021C027FD27C030ED380F3A3078F49C
:1036800026FF06C0FAE05F9E300D1124532E13C0B2
:103690008AE0389E300D1124332E20620CC08E3209
:1036A00021F426FD6BC1206406C08C3611F420681D
:1036B00002C0883641F4F60193FD859193FF819114
:1036C0006F018111C1CF982F9F7D9554933028F4BD
:1036D0000C5F1F4FFFE3F9830DC0833631F0833752
:1036E00071F0833509F05BC022C0F80180818983C5
:1036F0000E5F1F4F44244394512C540115C03801D0
:10370000F2E06F0E711CF801A080B18026FF03C0AB
:10371000652D70E002C06FEF7FEFC5012C870E941E
:10372000D31C2C0183012C852F77222E17C0380142
:10373000F2E06F0E711CF801A080B18026FF03C07B
:10374000652D70E002C06FEF7FEFC5012C870E94EE
:10375000C81C2C012C852068222E830123FC1BC051
:10376000832D90E048165906B0F4B70180E290E04E
:103770000E94DE1C3A94F4CFF50127FC859127FEC8
:1037800081915F01B70190E00E94DE1C31103A94F4
:10379000F1E04F1A51084114510471F7E5C0843625
:1037A00011F0893639F5F80127FF07C06081718172
:1037B000828193810C5F1F4F08C060817181072E49
:1037C000000C880B990B0E5F1F4F2F76722E97FF00
:1037D00009C090958095709561957F4F8F4F9F4F51
:1037E0002068722E2AE030E0A4010E94161DA82E47
:1037F000A81844C0853729F42F7EB22E2AE030E085
:1038000025C0F22FF97FBF2E8F36C1F018F488350E
:1038100079F0B4C0803719F0883721F0AFC02F2F6E
:103820002061B22EB4FE0DC08B2D8460B82E09C06D
:1038300024FF0AC09F2F9660B92E06C028E030E012
:1038400005C020E130E002C020E132E0F801B7FE1F
:1038500007C060817181828193810C5F1F4F06C018
:103860006081718180E090E00E5F1F4FA4010E9493
:10387000161DA82EA818FB2DFF777F2E76FE0BC0F5
:10388000372D3E7FA51450F474FE0AC072FC08C0A8
:10389000372D3E7E05C0BA2C372D03C0BA2C01C08F
:1038A000B52C34FF0DC0FE01EA0DF11D808180337F
:1038B00011F4397E09C032FF06C0B394B39404C03A
:1038C000832F867809F0B39433FD13C030FF06C010
:1038D0005A2CB31418F4530C5B18B32CB31468F4BB
:1038E000B70180E290E03C870E94DE1CB3943C85E7
:1038F000F5CFB31410F43B1801C0312C34FF12C0C3
:10390000B70180E390E03C870E94DE1C3C8532FFDB
:1039100017C031FD03C088E790E002C088E590E061
:10392000B7010CC0832F867859F031FF02C08BE2BB
:1039300001C080E237FD8DE2B70190E00E94DE1CFD
:10394000A51438F4B70180E390E00E94DE1C5A947D
:10395000F7CFAA94F401EA0DF11D8081B70190E040
:103960000E94DE1CA110F5CF332009F451CEB7011F
:1039700080E290E00E94DE1C3A94F6CFF701868147
:10398000978102C08FEF9FEF2C96E2E10C94A62066
:10399000FC010590615070400110D8F7809590951A
:1039A0008E0F9F1F0895FC0161507040019001101F
:1039B000D8F7809590958E0F9F1F08950F931F93B2
:1039C000CF93DF93FB01238121FD03C08FEF9FEF96
:1039D00028C022FF16C046815781248135814217B5
:1039E000530744F4A081B1819D012F5F3F4F318384
:1039F00020838C93268137812F5F3F4F3783268327
:103A000010C0EB01092F182F0084F185E02D0995D6
:103A1000892BE1F68E819F8101969F838E83812F72
:103A2000902FDF91CF911F910F910895FA01AA274E
:103A3000283051F1203181F1E8946F936E7F6E5FF1
:103A40007F4F8F4F9F4FAF4FB1E03ED0B4E03CD09F
:103A5000670F781F891F9A1FA11D680F791F8A1F82
:103A6000911DA11D6A0F711D811D911DA11D20D0E9
:103A700009F468943F912AE0269F11243019305DA3
:103A80003193DEF6CF010895462F4770405D419394
:103A9000B3E00FD0C9F7F6CF462F4F70405D4A33E1
:103AA00018F0495D31FD4052419302D0A9F7EACFA9
:103AB000B4E0A6959795879577956795BA95C9F7D8
:103AC00000976105710508959B01AC010A2E0694CB
:103AD0005795479537952795BA95C9F7620F731F84
:103AE000841F951FA01D0895662777270C94DA1D63
:103AF000FC0188279927E89421912032E9F32930A5
:103B000010F02E30C8F32B3241F02D3239F4689486
:103B100004C00E94D21D820F911D219120532A3092
:103B2000C0F31EF4909581959F4F08951F93FC015B
:103B300099278827BC01E89411911032E9F31930D4
:103B400010F01E30C8F31B3251F01D3249F4689456
:103B500006C00E94BD1D610F711D811D911D119137
:103B600010531A30B0F33EF490958095709561959E
:103B70007F4F8F4F9F4F1F910895592F482F372FF9
:103B8000262F660F771F881F991F660F771F881FC4
:103B9000991F620F731F841F951F660F771F881F61
:103BA000991F08957AE0979F902D879F802D910D02
:103BB00011240895A0E0B0E0E0EEFDE10C948E2029
:103BC000EC017B016115710519F0DB018D939C936C
:103BD0008E010F5F1F4F7880872D90E00E94371F66
:103BE000892B11F0E801F4CFBDE27B1205C00F5F15
:103BF0001F4F7980C1E008C0EBE27E1204C08E0145
:103C00000E5F1F4F7980C0E06801F1E0CF1AD10844
:103C100043E050E068EF70E0C6010E94401F892B2E
:103C2000F1F4680122E0C20ED11C45E050E063EFE0
:103C300070E0C6010E94401F892B21F4680187E0D3
:103C4000C80ED11CE114F10419F0D701CD92DC9219
:103C5000C111FFC060E070E080E89FE703C143E06E
:103C600050E060EF70E0C6010E94401F892B51F4C4
:103C7000E114F10409F4F2C00E5F1F4FF701118344
:103C80000083ECC0680160E070E0CB0100E010E070
:103C9000F601D0EDD70DDA3058F52C2F2260622EC8
:103CA0002C2F2870C2FF05C0211128C00F5F1F4FA5
:103CB00025C0222311F001501109A5E0B0E09B01BD
:103CC000AC010E947F204B015C01880C991CAA1C4E
:103CD000BB1CC501B4016D0F711D811D911D68399B
:103CE000A9E97A078A07A9E19A0740F0C66005C0EA
:103CF000DE3F51F4C3FD44C0C8606C2EBFEFCB1A49
:103D0000DB0A7080C62DC4CF2D2F2F7D2531C1F544
:103D100040814D3211F4C06106C04B3221F0319622
:103D200021E030E006C03296D60111964C9122E097
:103D300030E0A0EDA40FAA3018F0E21BF30B20C076
:103D400040E050E04038BCE05B075CF49A01220F91
:103D5000331F220F331F420F531F440F551F4A0FAB
:103D6000511D3196DF0111972C91A0EDA20FAA30C1
:103D700048F3C4FF03C0519541955109040F151F25
:103D8000C1FF07C0E114F10421F03197D701ED9391
:103D9000FC930E945D1FC370C33019F06B017C015E
:103DA00006C06B017C01F7FAF094F7F8F09420E07C
:103DB00030E0A901C701B6010E94581F882309F409
:103DC00045C017FF06C0119501951109CFE0D1E05C
:103DD00002C0C7E2D1E05E01B8E1AB1AB10846010A
:103DE000BE2DAF2D90E2E92EF12C0E151F0584F0AB
:103DF000FE012591359145915491B4018B2F9A2F55
:103E00000E94BE1F4B01B82FA92F0E191F09EDCF1D
:103E10002497F594E794CA15DB0539F76401EB2E76
:103E2000FA2E8E2D880F8F2D881F8F3F49F020E0AE
:103E300030E0A901C701B6010E94581F811106C0D8
:103E400082E290E09093D8058093D705C701B60130
:103E500009C060E070E080E89FEF04C060E070E0BF
:103E600080EC9FE7CDB7DEB7EEE00C94AA2091116D
:103E70000C942B20803219F089508550C8F7089592
:103E8000FB01DC014150504088F08D9181341CF0E1
:103E90008B350CF4805E659161341CF06B350CF44D
:103EA000605E861B611171F3990B0895881BFCCF2E
:103EB0000E949A1F08F481E00895E89409C097FBD6
:103EC0003EF490958095709561957F4F8F4F9F4FF1
:103ED0009923A9F0F92F96E9BB279395F695879535
:103EE00077956795B795F111F8CFFAF4BB0F11F4F8
:103EF00060FF1BC06F5F7F4F8F4F9F4F16C088239F
:103F000011F096E911C0772321F09EE8872F762FD4
:103F100005C0662371F096E8862F70E060E02AF015
:103F20009A95660F771F881FDAF7880F9695879501
:103F300097F90895990F0008550FAA0BE0E8FEEFD6
:103F400016161706E807F907C0F012161306E4075D
:103F5000F50798F0621B730B840B950B39F40A2656
:103F600061F0232B242B252B21F408950A2609F434
:103F7000A140A6958FEF811D811D08950E94D11F3C
:103F80000C9445200E94372038F00E943E2020F0FB
:103F9000952311F00C942E200C94342011240C94B1
:103FA00079200E94562070F3959FC1F3950F50E041
:103FB000551F629FF001729FBB27F00DB11D639FDB
:103FC000AA27F00DB11DAA1F649F6627B00DA11D81
:103FD000661F829F2227B00DA11D621F739FB00D27
:103FE000A11D621F839FA00D611D221F749F332797
:103FF000A00D611D231F849F600D211D822F762F30
:104000006A2F11249F5750409AF0F1F088234AF00C
:10401000EE0FFF1FBB1F661F771F881F9150504078
:10402000A9F79E3F510580F00C942E200C94792026
:104030005F3FE4F3983ED4F3869577956795B795FF
:10404000F795E7959F5FC1F7FE2B880F911D969519
:10405000879597F9089599278827089597F99F6775
:1040600080E870E060E008959FEF80EC0895002400
:104070000A941616170618060906089500240A94CD
:1040800012161306140605060895092E0394000C53
:1040900011F4882352F0BB0F40F4BF2B11F460FFE2
:1040A00004C06F5F7F4F8F4F9F4F089557FD90580B
:1040B000440F551F59F05F3F71F04795880F97FBEC
:1040C000991F61F09F3F79F08795089512161306A6
:1040D0001406551FF2CF4695F1DF08C016161706D5
:1040E0001806991FF1CF869571056105089408950A
:1040F000E894BB2766277727CB0197F908950E949C
:10410000C120A59F900DB49F900DA49F800D911D7F
:10411000112408952F923F924F925F926F927F9257
:104120008F929F92AF92BF92CF92DF92EF92FF92C7
:104130000F931F93CF93DF93CDB7DEB7CA1BDB0B73
:104140000FB6F894DEBF0FBECDBF09942A88398818
:1041500048885F846E847D848C849B84AA84B9841F
:10416000C884DF80EE80FD800C811B81AA81B9812B
:10417000CE0FD11D0FB6F894DEBF0FBECDBFED013F
:104180000895A29FB001B39FC001A39F700D811D30
:104190001124911DB29F700D811D1124911D089550
:1041A00010E0C7E9D0E004C0FE010E94C5172196C7
:0A41B000C839D107C9F7F894FFCF12
:1041BA00DE01DE010000D9058000585858585858C9
:1041CA005831303000000000F8014E072C0A490A25
:1041DA00360AF701000000001E0BC2009E0986097C
:1041EA007309F601000000004601C2000F01ED004C
:1041FA0001018D0100000000E00112050105E6043D
:10420A00B804DF01000000002502C20025022502D1
:10421A0025022502000000002502C200000000005D
:10422A004F0B3F08BB0AA10A8C0A3B0B2F7661721F
:10423A002F6176722F66775F76657273696F6E008B
:10424A0075636900676574006C6F726177616E2EC1
:10425A00726164696F2E72785F6672657175656ED8
:10426A006379006C6F726177616E2E726164696F37
:10427A002E54585346006C6F726177616E2E7261CC
:10428A0064696F2E636F6465726174650073697A1D
:10429A00653D002F7661722F696F742F64617461B6
:1042AA00002578257825782578002F7661722F6980
:1042BA006F742F2573002F7661722F696F742F64C4
:1042CA006C6461746100726D002D7266006C6F72AD
:1042DA006177616E2E726164696F2E74785F66729F
:1042EA00657175656E6379006C6F726177616E2EA8
:1042FA00726164696F2E5346006C6F726177616EEA
:10430A002E726164696F2E707265616D626C6500F0
:10431A006C6F726177616E2E726164696F2E42579B
:10432A00002F7661722F696F742F636667646174F8
:10433A006100727373693D00FE0073696E676C6594
:10434A005F706B745F6677645F76303033000D0A96
:04435A00006C730080
:00000001FF
